:020000000F28C7
:10000800CE00030E83129000040891000A089200A3
:100018004F089300422873286B205F20132883120F
:10002800851C172818281D2805181B281C282C286B
:100038001D280D080C04031D222823282C28013014
:100048008E0000308F0001308C0000308D002C288D
:10005800851C2F2830281328051C332834281328FA
:100068000D080C04031939283A2813288E018F012A
:100078008C018D011328132813280F280B1D4528E0
:10008800462854280B1101300E060F04031D4D2875
:100098004E285428103086062030860654285428C6
:1000A8001308CF0012088A0011088400100E83007C
:1000B800CE0E4E0E0900831681128111011581148E
:1000C80001140C30831281008B168B170800033043
:1000D80083168500860130308312860008008C0163
:0A00E8008D018E018F0183011028A5
:00000001FF
