:060000000A128A116F2FA5
:100EDE0083010A128A11CE2F0130831203139F0051
:100EEE000E30831603139F009F17080001308316E0
:100EFE00031385008601880183120313860188017E
:100F0E0008000630F200F20B8A2F640083120313DE
:100F1E001F15912F1F19942F952F912F962F8316F2
:100F2E0003131E08F200F301831203131E08F400CC
:100F3E00F5017408F500F40172087404F0007308EA
:100F4E007504F100AA2F08007108F2007208F30070
:100F5E00730883120313860088178813F930F20082
:100F6E006400F20BB72FBB2F64007008F2007208FA
:100F7E00F300730883120313860008170813F93061
:100F8E00F2006400F20BC82FCC2F640008000A1286
:100F9E008A117D270A128A110A128A1173270A12E0
:100FAE008A11D92F0A128A1188270A128A117108FA
:100FBE00FA01FA077008F901F9077A08F101F10749
:100FCE007908F001F0070A128A11AB270A128A116A
:100FDE000330F8008830F7005630F600F60BF52F88
:100FEE00F70BF52FF80BF52FD92FD92F0A128A11DF
:020FFE000028C9
:00000001FF
