S00B00005450342E7372656341
S11300000C9434000C9451000C9451000C94510045
S11300100C9451000C9451000C9451000C94510018
S11300200C9451000C9451000C9451000C94510008
S11300300C9451000C9451000C94F9000C94510050
S11300400C9451000C9451000C947D000C945100BC
S11300500C9451000C9451000C9451000C945100D8
S11300600C9451000C94510011241FBECFEFD8E022
S1130070DEBFCDBF11E0A0E0B1E0ECE3F3E002C0ED
S113008005900D92A038B107D9F721E0A0E8B1E0BE
S113009001C01D92A438B207E1F70E9453000C94EA
S11300A09C010C9400000E9417010E94D70087E66F
S11300B00E945C010E9466010E946C0182E691E04C
S11300C00E9480010E9472017894809180018823AB
S11300D0E1F30E94E80090918301973441F0923556
S11300E019F0923491F706C00E944D01EECF0E94A0
S11300F05001EBCF0E945601E8CF1F920F920FB62A
S11301000F9211242F933F934F935F936F937F9399
S11301108F939F93AF93BF93CF93EF93FF93C0912C
S1130120C600C63611F0C63431F41092800180E066
S113013091E00E948001C23711F0C23551F481E090
S11301408093800182E58093830189E491E00E9499
S11301508001C73611F0C73451F481E080938001E7
S113016087E4809383018FE291E00E948001C2368C
S113017011F0C23451F481E08093800182E48093D1
S1130180830186E191E00E948001FF91EF91CF917C
S1130190BF91AF919F918F917F916F915F914F919B
S11301A03F912F910F900FBE0F901F901895EAE783
S11301B0F0E0808180688083808187608083ECE7C1
S11301C0F0E08081806680838081836080830895ED
S11301D0EAE7F0E080818064808380917A0084FF84
S11301E0FCCFEAE7F0E08081806180838091790030
S11301F008951F920F920FB60F9211248F939F931D
S1130200809181018F5F8093810190918201891790
S113021020F485B18F7D85B903C085B1806285B92D
S11302209F918F910F900FBE0F901F90189584B1DE
S1130230866284B9E0E8F0E08081816F8083808108
S11302408D7F8083E1E8F0E0808189608083808114
S11302508F7E8083109289001092880010928B0008
S113026010928A0084B5826084BD84B58E7F84BD7B
S113027085B5877F85BD85B5836085BD85B58B7F55
S113028085BD8AE087BDEEE6F0E0808182608083F0
S11302901092820110928101089580938201089541
S11302A090E090938B0080938A00089590E090935F
S11302B089008093880008951092C10096E090937D
S11302C0C2001092C5008093C4000895E1ECF0E0F0
S11302D08081886080830895E1ECF0E08081806112
S11302E080830895E1ECF0E0808180688083089544
S11302F08091C00085FFFCCF08958093C6000895C7
S1130300EF92FF920F931F93CF937C01C0E007C03D
S11303100E947801F80180810E947D01CF5F8701EE
S11303200C0F111DF80180818111F2CFCF911F9123
S10F03300F91FF90EF900895F894FFCF18
S113033C46696E206465206D6F64696669636163E8
S113034C696F6E0D0A004D6F6469666963616E6452
S113035C6F20636F6C6F7220617A756C0D0A004D9F
S113036C6F6469666963616E646F20636F6C6F722E
S113037C2076657264650D0A004D6F646966696365
S113038C616E646F20636F6C6F7220726F6A6F0D95
S113039C0A00436F6E74726F6C20646520636F6C1B
S11303AC6F7220646520756E205247420D0A00005E
S9030000FC
