:020000000F28C7
:10000800CE00030E83129000040891000A089200A3
:100018004F08930010285D280B1D132814282E283C
:100028008B1E172818282E280D080C04031D1D28C0
:100038001E2825280616861201308C0000308D00F7
:100048002A28061286168C018D012A280B110630E3
:1000580081002E281308CF0012088A001108840096
:10006800100E8300CE0E4E0E09008B1783168111D9
:100078000108FE3907388100811280308B00063074
:1000880083128100FF3083168500860183120616CD
:1000980086164E28051C5128522857288518552899
:1000A80056284E285728A0308B004E284E284E2818
:0E00B8000F288C018D018E018F0183013928E4
:02400E00FAFFB7
:00000001FF
