:060000000A128A11922F82
:100F240083010A128A11B92F7008831203138600F1
:100F34000817F930F2006400F20B9D2FA12F640012
:100F4400BF30F2007208831203138805710886000B
:100F54008817F930F2006400F20BAD2FB12F640052
:100F64007F30F20072088312031388050800FF30F3
:100F74008316031385008601880181309F00C130E8
:100F8400831203139F00C530831203139F00CA2FDB
:100F94001F19CD2FCE2FCA2FCF2F831603131E0850
:100FA400F300F401831203131E08F500F60175081B
:100FB400F600F50173087504F70074087604F80068
:100FC400013088007808F101F1077708F001F00793
:100FD4000A128A1196270A128A11831203138801AE
:100FE4005430F4001C30F300F30BF62FF40BF62FFF
:0C0FF4006400C52FC52F0A128A110028C6
:00000001FF
