:02000000AC2B27
:100758008301B62B0330831685008601303083125F
:1007680086000800AE2383128E018F01900191014B
:10077800BD2B8312851CC12BC22BCD2B0518C52B75
:10078800C62BD62B11081004031DCB2BCC2BD62B34
:10079800CD2B01308E0000308F00013090000030EA
:1007A8009100D62B851CD92BDA2BE92B051CDD2BC8
:1007B800DE2BE92B110810040319E32BE42BE92B9A
:1007C8008E018F0190019101E92B01300E060F0473
:1007D800031DEF2BF02BF42B1030860620308606F5
:1007E80052308D0029308C008C0BF82B8D0BF82B98
:0807F800FD2BBD2BBD2B0028D9
:00000001FF
